:020000040802F0
:10000000E8C701205502020863160208BD15020860
:1000100061160208A1040208212102080000000064
:100020000000000000000000000000009D01020828
:10003000D904020800000000F1010208191F02089B
:100040006F0202086F0202086F0202086F020208C4
:100050006F0202086F0202086F0202086F020208B4
:100060006F0202086F0202086F0202086F020208A4
:100070006F0202086F0202086F0202086F02020894
:100080006F0202086F0202086F0202086F02020884
:100090006F0202086F0202086F0202086F02020874
:1000A0006F0202086F0202086F0202086F02020864
:1000B0006F0202086F0202086F0202086F02020854
:1000C0006F0202086F0202086F0202086F02020844
:1000D0006F0202086F0202086F0202086F02020834
:1000E0006F0202086F0202086F0202086F02020824
:1000F0006F0202086F0202086F0202086F02020814
:100100006F0202086F0202086F0202086F02020803
:100110006F0202086F0202086F0202086F020208F3
:100120006F0202086F0202086F0202086F020208E3
:100130006F020208190802086F0202086F02020823
:100140006F0202086F0202086F0202086F020208C3
:100150006F0202086F0202086F0202086F020208B3
:100160006F0202086F0202086F0202086F020208A3
:100170006F0202086F0202086F0202086F02020893
:100180006F0202086F020208DFF80CD000F010F9CD
:1001900000480047714D0208E8C701202A4B196842
:1001A0000868B0E8F04F80F30988BFF36F8F4FF015
:1001B000000080F3118870470000000006480068C6
:1001C000006880F3088862B661B6BFF34F8FBFF353
:1001D0006F8F00DF00BF00BF08ED00E0DFF80C000C
:1001E000016841F470010160704700BF88ED00E0D4
:1001F000EFF30980BFF36F8F134B1A681EF0100FD7
:1002000008BF20ED108A20E9F04F106008B44FF0CD
:10021000500080F31188BFF34F8FBFF36F8F0BF047
:10022000D7FC4FF0000080F3118808BC19680868FB
:10023000B0E8F04F1EF0100F08BFB0EC108A80F34A
:100240000988BFF36F8F7047FC000020EFF3058033
:10025000704700000648804706480047FEE7FEE773
:10026000FEE7FEE7FEE7FEE7FEE7FEE7FEE7FEE766
:10027000651F02088901020810B5431A934209D28A
:100280008318881803E010F8011D03F8011D521EA1
:10029000F9D210BD40EA01039B0703D009E008C969
:1002A000121F08C0042AFAD203E011F8013B00F83B
:1002B000013B521EF9D210BDD2B201E000F8012B71
:1002C000491EFBD270470022F6E710B513460A46D6
:1002D00004461946FFF7F0FF204610BD30B504462E
:1002E0000020034600E05B1C934203D2E05CCD5C3F
:1002F000401BF8D030BD034611F8012B00F8012B4C
:10030000002AF9D11846704701F0004330B421F0BB
:10031000004150EA010206D00A0DA2F56072C1F355
:100320001301002A02DC30BC00207047440F44EA6D
:10033000C104C100E01830BC00EBC250AFF3008034
:100340000029A8BF7047401C490008BF20F00100E9
:10035000704710B4B0FA80FC00FA0CF050EA0104C7
:1003600004BF10BC704749B1CCF1200421FA04F459
:1003700011FA0CF118BF012121430843A3EB0C0132
:10038000CB1D4FEA00614FEA102042BF002010BC95
:10039000704700EBC35010440029A4BF10BC704745
:1003A000401C490008BF20F0010010BC704700004D
:1003B000064C074D06E0E06840F0010394E80700B2
:1003C00098471034AC42F6D3FFF7E2FE74C6020839
:1003D000A4C6020870B58C1810F8015B15F007036D
:1003E00001D110F8013B2A1106D110F8012B03E0CE
:1003F00010F8016B01F8016B5B1EF9D12B0705D4D6
:100400000023521E0DD401F8013BFAE710F8013B1E
:10041000CB1A921C03E013F8015B01F8015B521E3A
:10042000F9D5A142D8D3002070BD00001CB54FF40F
:10043000407001F049F901F0DBF800F04FF801F0ED
:10044000D3FD01F009FE0D490220CDE90001002392
:1004500080220BA10D480BF003FE08490320091D63
:10046000CDE900010023802209A10C480BF0F8FD22
:100470000248001F00680BF0B1FAFEE704000020FC
:100480004C4544315F5461736B000000C115020894
:100490004C4544325F5461736B000000D91502086B
:1004A000FEE710B5FFF71AFF08B1002010BD0120CC
:1004B00010BD10B504460020B1F5C06F00D910BDC5
:1004C000002206E034F8123050FA83F000EB1320DB
:1004D000521C8A42F6D310BD7047000010B500F0E0
:1004E000B9F800F091FB00F01BFB0148406810BD1B
:1004F0000C00002001494861704700000090024054
:10050000044A0029D16901D0014300E08143D1614F
:10051000704700000090024005490028886902D019
:1005200040F0020001E020F0020088617047000006
:1005300000900240F0B5124F00234FF0004C44F2FF
:10054000F45E561E786013E000EB4314C4F800C05C
:10055000C3EBC31505EB450501EB8505C4E901E5D2
:10056000B34203D204F12005E56000E0E0605B1CCB
:100570009342E9D30349C8600348B860F0BD000066
:100580008C01002000900240DCC30120426811B1C0
:1005900022F0004101E042F000414160704700005C
:1005A00005490028886902D040F4005001E020F499
:1005B000005088617047000000900240F0B50F4C79
:1005C00000234FF48017561E206011E000EB431407
:1005D0002760C3EBC31505EB450501EB8505A56059
:1005E000B34203D204F12005E56000E0E0605B1C4B
:1005F0009342EBD302490861F0BD00008C0100205A
:100600000090024010B501214C06204601F052F93D
:100610002046BDE81040002101F04CB901B581B081
:1006200001980090002801D0401EFAE70CBD0000A0
:1006300038B5074CA06940F48010A061A069009013
:100640004FF6FF70FFF7EAFF0098A06138BD000089
:10065000009002407CB50121572001F01FF90121D3
:10066000880301F033F9012001F07CFB862003258B
:1006700000908DF8055002208DF804000024354EBE
:100680008DF806408DF807406946304600F08CFE34
:100690000B220121304600F0C3FE0B22022130461E
:1006A00000F0BEFE0B220721304600F0B9FE3220DA
:1006B000294E00906946304600F076FE0B2201215B
:1006C000304600F0ADFE0B220421304600F0A8FEBB
:1006D0000B220521304600F0A3FE4FF4D0401F4E00
:1006E00000906946304600F05FFE0B22114630460E
:1006F00000F096FE0B220D21304600F091FE0B22F9
:100700000E21304600F08CFE042000908DF805503C
:1007100001208DF80400124D8DF806408DF8074039
:100720006946284600F040FE0421284600F088FE75
:10073000002144F62064491C89B2A142FBD3042164
:10074000284600F07FFE0020401C80B2A042FBD370
:100750007CBD00000000024000080240001802407A
:1007600000100240034A0146002052690A4200D0AC
:100770000120704700900240034900200968C90722
:1007800000D00120704700000090024038B5214B96
:1007900000240094D3E9012117E06D1C0095156831
:1007A000AD0507D51568ED0504D40A6001228A60FD
:1007B0005A6808E01568ED0511D41568AD050ED42A
:1007C0008D686D1C8D60D2685A601568002D02DB43
:1007D000009D052DE1D304604460846038BD4A600B
:1007E0008C68641C8C608C68012C00D10A605C6889
:1007F0002268C2F30D458A682D1F012A02D90A68B2
:10080000926800E0A2680968E4685C600560C0E97D
:10081000012138BD8C01002008B500200090402047
:10082000FFF7A0FF012804D10B48694600680BF0D0
:10083000C8FB4020FFF75EFE4FF48030FFF75AFE02
:100840000098002807D005494FF080500860BFF39A
:100850004F8FBFF36F8F08BDE000002004ED00E074
:100860002DE9F04786B00027044601200097974EF7
:10087000CDE9000730698A4620F01C0502A801F086
:1008800031F893490398934A0144914202D245F0CA
:10089000080516E09049914A0144914202D245F080
:1008A0000C050EE08E498F4A0144914209D38E49CE
:1008B00008448E49884202D245F0040501E045F023
:1008C000100535614FF400420021504600F090FAC7
:1008D0004FF400684FF48049A0B18548FFF79EFEB1
:1008E000206898B3834D01980121401C0190504627
:1008F00000F0F4F9400702D40198A842F3D301981C
:10090000A84201D100973CE04FF4805200215046AC
:10091000019700F06DFA00B9009701980121401C81
:100920000190504600F0DAF9800602D40198A842FE
:10093000F3D30198A842E5D010215046019700F06A
:10094000CDF9410703D5C4F8208001E007E0276214
:10095000800701D5676112E0C4F814900FE0206AA7
:100960006169C00840EA510082B20021504600F09F
:100970003FFA00B900976FF07F40FFF74FFE0098F5
:1009800018B9C4F81490C4F8208030685A49084057
:10099000D4E901121143E26854F8103F1A4311439D
:1009A00062681143A2681143E2681143226911434E
:1009B00054F8142F114362681143A2681143E2688E
:1009C0001143226911430143316035684FF6FF77C7
:1009D0003846FFF723FE3560F4E905010843D4E902
:1009E0000212114308432169084361690843A16960
:1009F0000843E1690843706075683846FFF70EFEEA
:100A00007560206AB060606AF060B0694FF641714D
:100A10000840D4E90B121143238D626B42EA034272
:100A20001143A26B1143E26B11430143B161B569FC
:100A30003846FFF7F3FDB561D4E910010843F061D2
:100A4000F5693846FFF7EAFDF5612C4DA8692C4998
:100A50000840D4E912121143D4E914231A43114374
:100A6000A26D1143E26D1143226E1143626E114378
:100A7000A26E11430143A961AE693846FFF7CEFD6E
:100A8000AE61D4E91B010843616F54F8782F11431C
:100A90000843616840EA8100A168084340F400000F
:100AA00028602C683846FFF7B9FD2C60286840F0B4
:100AB000800028602C683846FFF7B0FD2C60009855
:100AC000012800D0002006B0BDE8F0870080024079
:100AD00000D3CEFEC0E1E40040F1E9FD40787D01A5
:100AE00000796CFC005A6202001F0AFA80F0FA02D8
:100AF000FFFF0F00FFFF04000F8120FF0090024066
:100B0000233FDEF8054B8A88184402640A78D1F83E
:100B1000011042EA01214164704700000080024058
:100B200000B5AFB001214FF0606000F0B7FEFFF7F5
:100B300069FD00F0FFF8FFF71FFE0128FBD06846B3
:100B400000F011F90120009000204FF40071CDE970
:100B50000A10090407901190CDE920010E9014901D
:100B600013900A1115902590269023920420CDE928
:100B7000280180032A9080012B9040122C90400085
:100B80002E9000216846FFF76BFE054948604868D3
:100B9000012803D101210348FFF7B2FC2FB000BDAB
:100BA0000C0000204000010038B50021094C0091E4
:100BB0000028206802D040F0040001E020F004008A
:100BC0002060206800904FF6FF70FFF727FD009827
:100BD000206038BD0080024038B50021094C0091EA
:100BE0000028206802D040F0080001E020F0080052
:100BF0002060206800904FF6FF70FFF70FFD00980F
:100C0000206038BD0080024008B53D208DF800000E
:100C100004208DF8010000208DF8020001208DF8DD
:100C20000300684600F01EFD08BD0000F0B5294E27
:100C3000002231680B68002B01DA0020F0BD40F281
:100C4000F454A04215D9B0FBF4F5B0FBF4F304FB67
:100C5000150505B15B1C012B0BD0C3F10107C7EBD8
:100C6000C71707EB470700EB87005D1EC0F30C00BA
:100C700023E00A6842F040520A60C0F30C0048606A
:100C8000086840F000400860C96818E00F6827F065
:100C900040570F601AB90F6847F080570F604C60DB
:100CA000AA4204D10F6847F000570F6048600F68F0
:100CB00047F000470F60C968521C9A42E6D30648C5
:100CC00031604169490703D5042141610021416038
:100CD0000120F0BD8C0100200090024018B50022D8
:100CE0000092124A13694FF6FF7403F01C0304EAE2
:100CF000C02018434FF4F86303EA8111014321F047
:100D0000020040F00100106109490098401C009069
:100D10001069C00702D000988842F6D30098884234
:100D200001D1002018BD506980B218BD008002407A
:100D3000FFFF04000248016841F0010101607047B3
:100D40000090024010B50120FFF746FF0120FFF799
:100D50002BFFFFF76DFC0120FFF722FCBDE81040E0
:100D60000120FFF7D9BB01210160002141608160B2
:100D70004FF48042C160C0E90412D2108161C0E921
:100D8000071241628162C162016341634022816353
:100D9000C0E90F122022C0E91121C164016541653B
:100DA00081658022C165C0E918128166C16601674C
:100DB0004167D2048167C0E91F125210C0E92121A6
:100DC0001311C0E92331C0F89410C0F89810C0F88E
:100DD0009C10C0E928125212C0F8A8209201C0F855
:100DE000AC205212C0E92C21C0F8B81070470000A6
:100DF00038B500230093114B1C694FF6FF7504F0C2
:100E00001C0405EAC02020434FF4F86404EA811171
:100E1000014341F003005A61186109490098401CE0
:100E200000901869C00702D000988842F6D3009855
:100E3000884201D1002038BD012038BD0080024029
:100E4000FFFF040010B500F065FA0221382000F021
:100E5000CBF90221402000F0C7F9BDE8104000F0B6
:100E600017BA000002A1002000F05EFE72B6FEE795
:100E70004552520A000000002DE9F041214CE08F5C
:100E80002080B4F840006080206841082160B1F5FE
:100E9000167F04D9BDE8F041002000F035B804EB1E
:100EA0004100184D468C2435A6F5BC475D3F10D156
:100EB000008CA0F5B8465A3E0BD12846091FFFF713
:100EC000F8FA0246206804EB4000818BC08B01EBEE
:100ED00000439A420BD1002104EB4102491C108DC2
:100EE00089B210820A29F7D300F052FC02E00020F8
:100EF00000F00AF82846BDE8F0414FF49661FFF78C
:100F0000E2B900009C01002070B590B04BF6AA3108
:100F1000ADF804104DF6CC51ADF8061001260221B3
:100F2000294B01AC002203EB4205521C2D8A24F808
:100F30001150491C92B289B20A2AF4D3002524F830
:100F40001150491C89B24CF2A80224F81120491C06
:100F500089B241F2441224F81160491C89B224F884
:100F60001120491C89B22E2224F81120491C89B273
:100F700024F81150491C89B224F81100491C8EB282
:100F800031462046FFF795FA24F81600761CB1B2D8
:100F9000000C24F81100491C88B245F65A4124F887
:100FA0001010401C80B245F65D6124F81010401C02
:100FB0000004C20B05480095012301A9006804F054
:100FC000EFFD10B070BD00009C0100201400002057
:100FD0002DE9F04F95B005464BF6AA30ADF8040068
:100FE0004DF6CC50ADF806000E4602204B4A01AB40
:100FF000002102EB4104491C248A23F81040401CC4
:1010000089B280B20A29F4D34FF0000923F8109076
:10101000401C80B24CF2A80123F81010401C80B292
:1010200047F6013123F81010401C80B243F288319A
:1010300023F81010401C80B229180C2202EB410149
:1010400023F81010401C80B2090C23F81010401C2B
:1010500087B239461846FFF72CFADFF8C4800446F9
:10106000CDF800907A00012301A9D8F8000004F01F
:1010700097FDB5B140F2B45085422BD8CDF8009021
:101080006A0001233146D8F8000004F089FDB5F567
:101090007A7F05D229463046FFF70BFA044400E078
:1010A0000024ADF80440200CADF8060045F65A4087
:1010B000ADF8080045F65D60ADF80A00CDF8009087
:1010C0000822012301A9D8F8000004F069FD15B039
:1010D000BDE8F08F2C46002740F6683B82460EE0C4
:1010E00040F26D10784306EBC00101235A46D8F850
:1010F000000004F055FD7F1CBFB2A4F2B454544567
:10110000CDF80090ECD806EB4500A0EB440162005E
:101110000123D8F8000004F043FDC1E79C01002042
:10112000140000202DE9F04F95B04FF00008DFF8D3
:10113000B49006000F46CDF8008013D040F2B450B2
:10114000864228D872000123D9F8000004F028FD57
:10115000B6F57A7F05D231463846FFF7AAF904443E
:1011600000E00024ADF80440200CADF8060045F680
:101170005A40ADF8080045F65D60ADF80A00CDF8BC
:1011800000800822012301A9D9F8000004F008FD1D
:1011900015B0BDE8F08FB6FBF0F13446002540F6FF
:1011A000683B824600910EE040F26D10684307EB09
:1011B000C00101235A46D9F8000004F0F1FC6D1C6F
:1011C000ADB2A4F2B4545445CDF80080ECD807EB8E
:1011D0004600A0EB440162000123D9F8000004F0AE
:1011E000DFFCBEE71400002070B50646002529B1DB
:1011F000012927D0022928D04FF4407500F09CF82F
:1012000009281ED1124C206820F44070206020680C
:1012100028432060206820F0F8002060206846F015
:10122000020108432060206840F48030206000F014
:1012300083F8216821F002012160216821F0F80182
:10124000216070BD4FF48075D8E74FF40075D5E785
:10125000103C02400D4909200A68D20301D5012043
:1012600070470A68D20601D5062070470A68D20581
:1012700001D5022070470A6812F0EF0F01D0072055
:10128000704709688907FBD5082070470C3C02406D
:101290000248016841F0004101607047103C024083
:1012A00070B50D46064600F047F8092811D1094CE3
:1012B000206820F44070206020682060206840F0A2
:1012C00001002060357000F037F8216821F001013D
:1012D000216070BD103C024070B50D46064600F01E
:1012E0002BF8092813D10A4C206820F440702060A4
:1012F000206840F400702060206840F00100206009
:10130000356000F019F8216821F00101216070BDFD
:10131000103C024005480068002805DA03480449EB
:101320000C3801600349016070470000103C024026
:1013300023016745AB89EFCD08B509208DF8000082
:10134000FFF788FF8DF800009DF800000128F7D016
:101350009DF8000008BD000070B510248CB000227C
:10136000104E13466D46F15C5B1C98B225F81210C6
:10137000335C401C01EB032125F81210521C92B281
:1013800083B2A242EFD321462846FFF792F805EB3D
:1013900044014880000C88806946A01CFFF718FEB5
:1013A0000CB070BD9CC30208F0B5002201274FF0BD
:1013B000030C0B6807FA02F52B40AB422CD10668F0
:1013C00053000CFA03F4A64306600E79D0F800E04F
:1013D0009E4046EA0E0606600E79012E01D0022ECE
:1013E00012D18668A64386604E79D0F808E09E4008
:1013F00046EA0E0686604668AE43466045688E79CA
:101400009640B6B235434560C568A543C560CC7902
:101410009C40C3681C43C460521C102AC9D3F0BD51
:101420004B07DB0E9A40C90810B500EB8100016A3A
:101430000F249C40A1430162016A1143016210BD67
:10144000418370470183704742694A404261704757
:101450001FB5684600F046FA0AA10020009A00F085
:1014600063FB10A10020019A00F05EFB15A1002093
:10147000029A00F059FB1BA10020039A00F054FBD4
:101480001FBD00005243435F436C6F636B732E5369
:101490005953434C4B5F4672657175656E63792095
:1014A00025640A005243435F436C6F636B732E489D
:1014B000434C4B5F4672657175656E6379202020E1
:1014C00025640A005243435F436C6F636B732E5075
:1014D000434C4B315F4672657175656E63792020B0
:1014E00025640A005243435F436C6F636B732E5055
:1014F000434C4B325F4672657175656E637920208F
:1015000025640A0010B500F04FFA48B1042809D04C
:10151000082809D105A1BDE81040002000F004BB57
:101520000EA1F8E719A1F6E710BD00005379736327
:101530006C6B5374617475733D3D307830383A206C
:10154000504C4C20757365642061732073797374FB
:10155000656D20636C6F636B0A00000053797363E1
:101560006C6B5374617475733D3D307830303A2044
:1015700048534920757365642061732073797374CF
:10158000656D20636C6F636B0A00000053797363B1
:101590006C6B5374617475733D3D307830343A2010
:1015A00048534520757365642061732073797374A3
:1015B000656D20636C6F636B0A000000FEE700003E
:1015C000044C08212046FFF73FFF32200AF0EEF9D5
:1015D000F7E7000000100240044C10212046FFF7FE
:1015E00033FFC8200AF0E2F9F7E7000000100240DC
:1015F0007CB50121512000F051F918200090012004
:101600008DF8040000218DF8061003218DF80510D7
:10161000104C8DF8070069462046FFF7C5FE1821DB
:101620002046FFF70FFF0C4D6415694628460094CD
:10163000FFF7BAFE21462846FFF704FF0220074CB9
:10164000009069462046FFF7AFFE02212046FFF7D3
:10165000F9FE7CBD0010024000180240000002406C
:10166000FEE7704730B50F23C27801780125FAB143
:10167000144A126801F1E02102F4E062C2F5E0626E
:10168000C2F30722C2F10404D3404278A240847816
:101690001C401443220181F80024007800F01F014F
:1016A0008D404009800000F1E020C0F8005130BDBD
:1016B00001F01F0085404809800000F1E020C0F8DB
:1016C000805130BD0CED00E002490843024908603A
:1016D000704700000000FA050CED00E0024A1140DE
:1016E000014302480160704780FFFF1F08ED00E0E2
:1016F00010B50288408862F30F0160F31F4101209A
:1017000000EB9120084A80B28905108001D1401E6B
:101710001080FFF797FB00F0AFF90021BDE8104003
:101720000846FFF755BC00001C00002070B530F8DB
:10173000065C04462A4610A1002000F0F5F94FF49B
:1017400080622146104800F06FF810480088A842D7
:101750000BD100F0D3FB00210846FFF739FC4FF412
:101760007A700AF025F800F02BFCBDE870400021EB
:101770000846FFF72DBC00007061636B5F6E756DEE
:101780002025640A00000000000006081C0000205C
:10179000F0B5234D00208FB0224F2A680446014641
:1017A0006E4607EB4103491C1B8D89B203F0FF0C09
:1017B00026F810C0401C80B21B0A26F81030401CCE
:1017C00080B20A29EDD3002126F81010401C80B207
:1017D000042C26F8101021D20123002007E036F84F
:1017E0001070B94201D0002304E0401C80B2115CAB
:1017F0000029F4D136F8100048B943B1642009F04B
:10180000E3FF05EBC4004168064842308847641C8A
:10181000A4B2042C02D255F83420DDE70FB0F0BD9D
:10182000BCC302089C0100202DE9F0411546884602
:101830000646FFF76FFD00240F4F07E0386818F8E1
:10184000041030442044FFF72BFD641CAC42F5D358
:1018500038682A4630444146FEF723FE08B107A106
:1018600000E00AA1002000F05FF9386828443860E1
:10187000BDE8F041FFF70CBD2000002077726974CD
:101880006520726967687421210A000077726974A3
:1018900065206572726F7221210A0000044A0029D6
:1018A000116801D0014300E08143116070470000DE
:1018B00030380240044A0029116801D0014300E099
:1018C000814311607047000010380240044A00292B
:1018D000116801D0014300E08143116070470000AE
:1018E0004438024070B5204B1968204C11F00C01AF
:1018F00004D06610042903D0082903D004601BE03B
:10190000066019E0184A121F1168C1F3805511686A
:1019100001F03F0115B1B6FBF1F101E0B4FBF1F1CB
:1019200014681268C4F388146143C2F30142521C64
:101930005200B1FBF2F1016019680F2202EA1111A5
:101940000B4A545C0168E14041601C68072505EAC8
:101950009424145D21FA04F484601B6805EA53336F
:10196000D25CD140C16070BD083802400024F40050
:101970007C01002002460020510901290BD00229D8
:101980000CD00849096802F01F02012393400B4262
:1019900000D00120704703497439F3E70149091F5A
:1019A000F0E70000743802400248006800F00C00C4
:1019B0007047000008380240034A116821F0F00126
:1019C00001431160704700000838024002490022BC
:1019D0000A7008707047000002380240034A11681C
:1019E00021F4E051014311607047000008380240C3
:1019F000034A116821F4604141EAC0001060704759
:101A0000083802400149086670470000000047425C
:101A100041EA82115A0810B5054B029C03EB0242C1
:101A20001143014341EA04600249086010BD00000F
:101A30000000FFFF04380240034A116821F003014F
:101A400001431160704700000838024018B50020BB
:101A50004FF4A04400903120FFF78CFF0099491CFF
:101A60000091A14201D00028F5D03120FFF782FF7C
:101A7000002800D0012018BD10B5FFF74BFC022153
:101A80001820FFF7B1FBBDE81040FFF701BC00F0E4
:101A900049BB00002DE9F04107460B4815460E46AC
:101AA000007808B900F03EFBEFF31184202080F3AA
:101AB00011882A463146384600F008F8E1B281F331
:101AC0001188BDE8F08100007006002070B50E4658
:101AD000144900EB400001EBC0051446E86A1835D4
:101AE00020B101280FD0022805D113E0284600F0CC
:101AF0004DFBA04201D2002411E022463146284687
:101B000000F064FC0BE0284600F040FBA042F4D259
:101B10000446F2E73146284600F02BFC04462046F6
:101B200070BD0000700600200FB408B504A9009134
:101B30006A46039900F004F801B05DF814FB000058
:101B40002DE9F04782462DED028BC8B002A84290E5
:101B50004FF480704FF000094390CDF81091CDE91B
:101B6000459A16460C46484614F8011B002970D0C9
:101B700025290AD042A800F0DDFB45980028F3DAB9
:101B800048B0BDEC028BBDE8F0870025012120782C
:101B900023281ED02B2819D02D2802D0302808D178
:101BA00002E045F0010501E045F00205641C002952
:101BB000EDD100272078A0F130010A290CD207EBE3
:101BC000870100EB4107641C303FF3E745F0040553
:101BD000ECE745F00805E9E7C1B24FF000082E290F
:101BE0000CD114F8010FA0F130010A2906D208EB3C
:101BF000880100EB4100A0F13008F2E76C280CD01E
:101C000068280AD0662851D00FDC582829D007DC74
:101C1000252877D046282FD148E014F8010FEDE7AA
:101C200063280BD0642827D10DE0702833D07328A7
:101C300023D075280ED078281ED112E03068011DFF
:101C40003160017878E030684346011D31600168F9
:101C50006AE076E030684346011D31600A2201687F
:101C600005E030684346011D316001681022CDE96E
:101C7000007542A800F0F8FA61E03068011D31609B
:101C8000056815F8011BE1B342A800F053FB459825
:101C90000028F6DA53E030680822011D316001683F
:101CA000CDE900291346102242A8E3E73068C01DA1
:101CB00020F0070000F10801316090ED000B51ECBD
:101CC000100BFEF721FB08EE100AB5EEC08AF1EE0C
:101CD00010FA03D22D2142A800F02CFBBDEEC80A59
:101CE00010EE101A002900DA4942CDE9007543468A
:101CF0000A2242A800F055FA2E2142A800F01AFB51
:101D000001E01CE017E09FED160A28EE000ABDEE88
:101D1000C00A10EE100A002800DA4042642190FB4D
:101D2000F1F201FB12010223CDE900750A2242A85B
:101D300000F037FA03E0252142A800F0FBFA641C0A
:101D40001BE700287FF71CAF449820B1024602A988
:101D50005046FFF79FFEDDE94410084445900FE729
:101D60000000C8420149C1F8DC007047000027426A
:101D70002DE9F041134E00244FF6FF774FF4007524
:101D80001148611C06EB842220F8021B07EA44215B
:101D900005EB442305E032F802CB491C20F802CBC6
:101DA00089B28B42F7D80849401A4010FFF7BAF9B8
:101DB0004FF47A7009F0FAFD641CC02CE0D3BDE842
:101DC000F081000000000A0800000010F8B5074686
:101DD000002000901C4615460E460120FFF7F6FD38
:101DE000FFF734FE0090012801D0FFF73BF80120F7
:101DF000FFF722FEFFF7D8FD0428FBD10020FFF7F4
:101E000001FE0020FFF7D8FD4FF4A050FFF7E6FDDC
:101E10004FF48050FFF7ECFD2B46324639464FF425
:101E200080000094FFF7F4FD0120FFF7EBFD39205F
:101E3000FFF7A0FD0028FAD00220FFF7FDFDFFF715
:101E4000B3FD0828FBD1F8BD0CB50022274900924C
:101E50000192086840F4803008604FF4A04308689D
:101E600000F4003001900098401C0090019810B9D7
:101E700000989842F3D10868800334D5012001907E
:101E80001A484030026842F08052026018480268E6
:101E900042F440420260154808300268026002685D
:101EA00042F400420260026842F4A0520260031F42
:101EB000104A1A600A6842F080720A600A68920149
:101EC000FCD50D4940F205720A60016821F003015A
:101ED0000160016841F0020101600168C1F3810104
:101EE0000229FAD10CBD01920CBD0000003802405D
:101EF0000070004008544007003C024010B5FFF756
:101F000009FA00210348FFF7E7F9BDE81040FFF7A1
:101F1000BFB9000000C0000810B5502080F3118840
:101F2000BFF34F8FBFF36F8F0AF0DAF818B104498F
:101F30004FF080500860002080F3118810BD000031
:101F400004ED00E010B5FFF783FAFFF7DBFA042396
:101F50000222F0210820FFF739FFBDE81040FFF70B
:101F600077BA0000124810B5016841F470010160B1
:101F70001048016841F0010101600E4A0021083259
:101F8000116002680C4B1A400260031D0B4A1A6074
:101F9000026822F48022026006480C300160FFF7DC
:101FA00053FF03494FF000608039086010BD000006
:101FB00088ED00E000380240FFFFF6FE10300024FC
:101FC000012080F31388BFF34F8F05480168054A4D
:101FD00001F4E06111430160BFF34F8FFEE70000A1
:101FE0000CED00E00400FA050EB50021084609F0EA
:101FF000A5FA14491248154A0860091D6FF07F4080
:102000000860091D10480860114900208DE807008C
:102010000C4B104808331A1F111F03F057FE0D48D0
:1020200003F0BCFF0B4890F829004007094803D58E
:10203000BDE80E4003F0DABFBDE80E4003F0B4BFC8
:10204000C0A87B01F0000020C0A8000139B602083A
:10205000E130020888BB00201CB506490620CDE906
:10206000000100234FF4806203A1084809F0F8FF43
:102070001CBD0000180000205443505F5365727669
:1020800065725F5468726561640000009120020807
:102090002DE9F84300221146102003F0ADFB06465F
:1020A00041F288321B4903F04DFAFF21304603F01C
:1020B00081FB1A4D184C4FF4C06705F1240820E04D
:1020C0009EB120684068417A41F0080141720CE0FD
:1020D000009800233A460068414604F02DFA6860F3
:1020E000FEF7CAFE009803F05DF96946206803F028
:1020F00013FC0028ECD0206803F04CFA206803F0B1
:1021000073FA0549304603F05FF90028D8D0BDE8DE
:10211000F8830000F0000020140000209C01002043
:10212000FEE7000010B5124C03202061606111A091
:10213000A06104F1A800E0614FF4806020620021FA
:10214000A1626162E1620BA0206604F595606066A1
:102150001020A0662167E166616709A1E01DFEF716
:10216000CAF808A12046FEF7C6F82020A07110BDCD
:10217000700600205465726D696E616C000000008D
:102180005254540053454747455200000269C16804
:102190008A4203D88068401A104400E0501A401E5A
:1021A00070472DE9FC5F0E008046DDE90C47C6F163
:1021B000000099469246834600D40846012502E075
:1021C00090FBFAF06D1C5045FADAA94500D94D464E
:1021D00024B1002E01DB780700D5641EB80702D5B4
:1021E000B9F1000F0FD0F8070DD164B1A5420AD2A2
:1021F00020214046641E00F09DF8D8F80C0000280D
:10220000F3DABDE8FC9FD8F80C000028F9DB002EBB
:1022100002DA5E462D2102E0780707D52B214046E1
:1022200000F088F8D8F80C000028EADB07F003007B
:1022300002280FD1B9F1000F0CD15CB1A54209D22F
:1022400030214046641E00F075F8D8F80C000028D4
:10225000F3DAD6E7CDE900474B46524631464046D1
:1022600000F002F8CDE700002DE9F84F8246DDE9E5
:102270000A4B012599461746884608462E4602E035
:10228000B0FBF7F0761CB842FAD2B14500D94E4601
:102290005FEACB7017D1B4B15FEA8B7002D5B9F1A8
:1022A000000F02D0202000900BE03020FBE75046CA
:1022B000641E009900F03EF8DAF80C00002835DBC7
:1022C0000CB1A642F3D3DAF80C0000282EDBB9F1EA
:1022D000010F02D9A9F1010903E0B8FBF5F0B842FA
:1022E00001D37D43F3E7DFF84890B8FBF5F000FB3E
:1022F000158819F80010504600F01CF8DAF80C00A8
:10230000002803DBB5FBF7F5002DEED15FEACB70BB
:102310000CD0002C0AD0A64208D220215046641EC0
:1023200000F008F8DAF80C000028F2DABDE8F88FBF
:10233000DCC3020810B50446D4E90130421C9342C4
:1023400005D323681954A260E068401CE060D4E91A
:102350000102824209D121682069FFF79BFBA16835
:10236000884203D04FF0FF30E06010BD0020A06035
:1023700010BD2DE9F047C4681746894605464FF061
:1023800000082869A04201D9061B02E0A968201AAA
:102390000E1AA868761E001BB04200D80646BE4240
:1023A00000D33E466868324620444946FDF764FF44
:1023B000A868BF1B3444B044B144A04200D10024FB
:1023C000EC60002FDDD14046BDE8F0872DE9F041FB
:1023D00004468846D4E90207C51BE16860681646D2
:1023E0000844B54206D94146FDF746FFB819E060FA
:1023F000BDE8F0812A464146FDF73EFF761B08EB1B
:10240000050132466068FDF737FFE660F0E700003F
:10241000014A024900F013B859310208980100201E
:1024200002E008C8121F08C1002AFAD1704770479D
:10243000002001E001C1121F002AFBD170472DE9E5
:10244000F04116460F460446002503E03946B047E2
:10245000641C6D1C20780028F8D12846BDE8F08166
:102460002DE9F04790460E4604006FF0050551D067
:1024700004F11400814605F013F800284AD0EF1F3C
:10248000002E39D0B8F1000F02D030A0FFF7C0FF06
:102490002078216A03F000F805004FF0FF383DD0A6
:1024A0006E6004F02BFF2946484604F0EBFFA0B312
:1024B0006C680021204605F05FFA0021204607F0F5
:1024C0005DFD0021204607F0F1FF00221146204665
:1024D00007F03AF80021204605F04AFD0020686028
:1024E00005F11000044604F0B1FF204604F0C7FFD8
:1024F000284603F0E5F81FE0384602F0C7FB014626
:10250000484604F0BFFF28B9236A1BB100221146D8
:10251000204698472846BDE8F0870FE0384602F08D
:10252000B5FB0146484604F0ADFF28B9236A1BB14C
:1025300000221146204698474046ECE7236A1BB12B
:1025400000221146204698470020E4E76578706530
:102550006374206E6577706362203D3D204E554C5C
:102560004C206F7220657272203D3D204552525FB3
:102570004F4B000070B505460C46880702D007A0F7
:10258000FFF746FF04F00CFFA96809682160A968FD
:102590000C60BDE8704004F025BF00006D656D70F3
:1025A0005F667265653A206D656D2070726F70654B
:1025B000726C7920616C69676E65640070B5044661
:1025C00004F0EEFE0546A06804685CB12168016075
:1025D000A00702D006A0FFF71BFF284604F002FF69
:1025E000204670BD284604F0FDFE002070BD0000AE
:1025F0006D656D705F6D616C6C6F633A206D656DBC
:10260000702070726F7065726C7920616C69676E92
:10261000656400002DE9F0470F46040002D137A0A1
:10262000FFF7F6FE04F0BCFE002666602772217EEE
:1026300041F0010121766578667004F0D3FE236ACB
:102640007BB10022042120469847236A4BB1002227
:10265000114620469847236A1BB1002202212046DA
:102660009847384602F012FB804604F1100081467C
:1026700004F016FF18B14146484604F003FF04F188
:102680001400814604F00CFF18B14146484604F09E
:10269000F9FE012D0BD0042D09D0032D07D0E069E0
:1026A000002828D0BDE8F04718A0FFF7B1BE207E73
:1026B000C0F3800100F0FB00207600291BD1E06907
:1026C00010B919A0FFF7A4FEE069042D08D0077126
:1026D000E06905680C35284604F034FF10B104E0C9
:1026E0000671F5E717A0FFF793FE2846E661BDE8FF
:1026F000F04704F021BFBDE8F0870000636F6E6E05
:1027000020213D204E554C4C00000000636F6E6E42
:102710002D3E63757272656E745F6D7367203D3D0B
:10272000204E554C4C000000636F6E6E2D3E63755D
:102730007272656E745F6D736720213D204E554C3B
:102740004C000000696E61766C6964206F705F6395
:102750006F6D706C657465645F73656D000000007B
:1027600070B5094E0546002404EB440006EBC0009A
:10277000017D29B18068A84202D1204600F0F0F81E
:10278000641C0A2CF0DB70BD78BA00202DE9F74FED
:1027900084B04FF00A0B00248046DA465F46D946E3
:1027A000029401940094474904EB440001EBC006F5
:1027B0000390357D0A2F18D02DB3012D04D0022DA2
:1027C00002D241A0FFF724FEB8F1000F11D0D8F8D3
:1027D0000000716888420CD1069810B1B16881423E
:1027E00007D1204607B0BDE8F08F002DE5D1274680
:1027F00009E0012D15D0022D05D3708A0099884279
:1028000001D3A2460090641C24B20A2CCBDB0598AD
:1028100081074FF0FF30E5D40A2F15D017DA3C4678
:1028200035E02848039950F831000028708A05D017
:1028300002998842E7D3A1460290E4E701998842D1
:10284000E1D3A3460190DEE70599C907CAD05146F6
:10285000BAF10A0F0ADA0C461A4801EB440150F8A3
:10286000310060B128A0FFF7D3FD08E05946BBF165
:102870000A0F03DB4946B9F10A0FB3DA0C460A2CFA
:1028800002DB27A0FFF7C4FD204600F069F80A2C00
:1028900002DB23A0FFF7BCFD0A4804EB440100EB78
:1028A000C105287D10B123A0FFF7B2FDB8F1000FDC
:1028B00002D0D8F800006860002068820698A860FE
:1028C0008FE7000078BA00207374617465203D3D85
:1028D000204554484152505F53544154455F504540
:1028E0004E44494E47207C7C207374617465203EC1
:1028F0003D204554484152505F53544154455F5325
:102900005441424C450000006172705F7461626C1A
:10291000655B695D2E71203D3D204E554C4C00009D
:1029200069203C204152505F5441424C455F53491D
:102930005A4500006172705F7461626C655B695D2D
:102940002E7374617465203D3D20455448415250BA
:102950005F53544154455F454D50545900000000A9
:1029600070B5074D00EB4004002655F8340018B14F
:1029700003F03CFE45F8346005EBC400067570BDFD
:1029800078BA00202DE9F04385B00D00074609D044
:102990007C684FF480782088404537D1207906281C
:1029A00034D105E01BA0FFF733FD05B0BDE8F0838F
:1029B000607904282AD16088082827D1D4F80E002D
:1029C0000490A169686818B1814201D1012600E034
:1029D00000260EB1012300E0022304F10802914613
:1029E00004A9284600F088FAE08840450ED16EB16F
:1029F000022204ABCDE90232291DCDE9001905F10F
:102A0000220319464A46284600F0B4F9384603F036
:102A1000EDFDCAE76E6574696620213D204E554C78
:102A20004C000000FEB515460E46040002D13DA044
:102A3000FFF7EEFC16B93FA0FFF7EAFC15B940A07E
:102A4000FFF7E6FC2146286800F03AFD08B1404B4C
:102A50003FE02868C0F303110E2925D0A168636800
:102A600000EA01020B409A4208D080B2A0F57E41F4
:102A7000A93903D0E068B0B304F10C05354B3649F1
:102A80001A7802EB420001EBC000077D022F2ED323
:102A90008768A7422BD12F684068874227D13146EB
:102AA000204600F05BF8FEBD01208DF804000020F8
:102AB0008DF805005E208DF80600687801AB00F007
:102AC0007F008DF80700A8788DF80800E8788DF869
:102AD00009004FF40060009004F1220231462046C4
:102AE00000F0B6FAFEBDFFE76FF00300FAE7002240
:102AF00002EB420001EBC000077D022F08D387687C
:102B0000A74205D12F684068874201D11A70C6E7F5
:102B1000521CD2B20A2AEBD332462946204600F094
:102B200071F8DFE76E6574696620213D204E554CD3
:102B30004C0000007120213D204E554C4C000000FF
:102B400069706164647220213D204E554C4C000038
:102B500020C50208D000002078BA00202DE9F843F3
:102B60000646154688461A4802EB450100EBC104AB
:102B7000207D022802D217A0FFF74AFC144A05EB79
:102B80004501207D02EBC1050C35022813D1608A76
:102B90000327B0F58E7F04D9211D304600F068F977
:102BA00007E0B0F5877F06D32A46211D304600F0A6
:102BB00065F900B927754FF4006000902B4606F1C7
:102BC00022024146304600F043FABDE8F883000097
:102BD00078BA00206172705F7461626C655B6172CB
:102BE000705F6964785D2E7374617465203E3D206A
:102BF0004554484152505F53544154455F535441EA
:102C0000424C45002DE9FC5F8246223001900F4680
:102C1000086816464FF0FF344FF0000B514600F0A5
:102C20004FFC80B93868C0F303110E290BD057B19F
:102C300048B1524601213846FFF7A8FD050005D5E9
:102C400040B2BDE8FC9F6FF00F00FAE77F2D02D382
:102C500031A0FFF7DDFB05F0FF09334909EB490817
:102C600001EBC805287D50B1012804D0022802D20A
:102C70002EA0FFF7CDFBBBF1000F06D104E0012031
:102C80002875C5F808A000E036B93946504600F06E
:102C9000EFF80446002ED4D0287D234F02280ED30F
:102CA0002C494FF4006005F10C0381F8009000906E
:102CB00031465046019A00F0CBF904462AE001283B
:102CC00028D10025344660892189884204D12068B2
:102CD00010B121A0FFF79CFB207B400603D42468A1
:102CE000002CF0D13DB132464FF420710E2003F09C
:102CF00059FB064602E0304603F062FD46B157F844
:102D0000380008B103F072FC47F83860002401E095
:102D10004FF0FF34204694E774797065206F766534
:102D200072666C6F7700000078BA00206172705F85
:102D30007461626C655B695D2E7374617465203DBE
:102D40003D2050454E44494E47206F722053544118
:102D5000424C4500D00000206E6F207061636B65AF
:102D6000742071756575657320616C6C6F7765642F
:102D7000210000002DE9FF4F81B09846DDE90FA941
:102D8000DDF838B006004FF0000702D126A0FFF7AB
:102D90003FFB4FF420721C210E2003F079F905004F
:102DA0003ED068891C2802D223A0FFF731FB6C6853
:102DB000119801F0C7FAE08096F82800062802D0A2
:102DC0002A48FFF725FBD8F80010A160B8F80400E6
:102DD000A081DAF80010C4F81210BAF80400E082FA
:102DE000DBF80000C4F80E00D9F80000A0614FF431
:102DF000807020800820608006202071042060718F
:102E000040F60600DDE9022300902946304600F036
:102E10001FF9284603F0EAFB384605B0BDE8F08FFD
:102E20004FF0FF30F9E700006E6574696620213DC0
:102E3000204E554C4C000000636865636B2074683D
:102E400061742066697273742070627566206361B4
:102E50006E20686F6C64207374727563742065747F
:102E6000686172705F6864720000000030C602081A
:102E7000014A00F003B8000020C502087FB5064DE6
:102E8000031D0124CDE90035CDE902141E33194696
:102E9000FFF770FF04B070BD26C5020870B5154D70
:102EA000002404EB440005EBC002117DF1B1508A0F
:102EB000401C80B25082B0F5967F0AD2012906D01C
:102EC00003290AD004290AD001290BD00EE00528D5
:102ED00008D32046FFF744FD08E0042000E002206C
:102EE000107503E0111D9068FFF7C2FF641C0A2CE7
:102EF000D7DB70BD78BA0020F8B5044690F82800FA
:102F00001F4615460E46062802D01EA0FFF780FA7F
:102F10009EB1306888B1214600F0D2FA68B93078A5
:102F2000C0F303100E2808D0224639463046FFF77A
:102F30002DFC002804DA40B2F8BD6FF00F00F8BD98
:102F4000194A00EB400102EBC100022303758460C3
:102F50002B68C360AB8803820023438252F8316040
:102F600076B142F831304FF4006000902B4604F106
:102F700022023146204600F06BF8304603F036FB63
:102F80000020F8BD6E657469662D3E6877616464E3
:102F9000725F6C656E203D3D204554485F48574147
:102FA0004444525F4C454E0078BA00202DE9F04170
:102FB000044640890E270D460E283CD9E07B18B9FF
:102FC00095F82C00401CE073606801788689CA0778
:102FD00014D0012905D006221C49FDF77FF948B11C
:102FE0000CE0417851B980785E2807D1607B40F0D1
:102FF000100002E0607B40F008006073082E03D0F0
:10300000B6F5C16F17D10DE095F82900000712D56C
:103010003946204603F0F2FB68B92946204600F005
:1030200061FB10E095F82900000704D539462046D9
:1030300003F0E4FB18B1204603F0D8FA03E0294678
:103040002046FFF79FFC0020BDE8F08120C5020864
:103050002DE9F04104461F4690460E46069801F0C1
:1030600071F905460E21304602F0DEFF18B16FF00F
:103070000100BDE8F0817068858139680160B98818
:103080008180D8F80020C0F80620B8F804104181EB
:1030900094F82800062802D004A0FFF7B9F93146B9
:1030A0002046A269BDE8F041104700006E657469D2
:1030B000662D3E6877616464725F6C656E206D7525
:1030C0007374206265203620666F722065746865AF
:1030D000726E65745F6F7574707574210000000006
:1030E00010B5040002D109A0FFF792F9732084F80B
:1030F0002A00742084F82B00084860610848A06109
:10310000204600F0C7FF002010BD00006E65746906
:103110006620213D204E554C4C000000252A020817
:10312000194202080B4D002364221946686808F012
:10313000C9FD0128F7D1286801F012F80400F2D087
:1031400029680A6990470028F5D0204603F04EFA16
:10315000E9E70000DC00002038B504468DF80000E7
:1031600069460320ABBE204638BD0A46032100F065
:10317000D3B800002DE9FE4F8A464B4904468D68BE
:1031800028780007860E142E4BD360890428FBD3C1
:1031900060680078002844D008287FD1486901F190
:1031A0001409C0F303120E2A78D08846096800F08B
:1031B00087F9002872D1208908286FD3204600F0B3
:1031C0000FF900286AD106F10E010F46204602F0E1
:1031D0002BFF60B32089811989B288425ED84FF4F1
:1031E00020720E2002F054FF070057D0798906F1B3
:1031F0000800814212D3324629467868FDF73CF830
:103200003146384603F0FAFA18B128A0FFF700F962
:1032100004E02146384603F0E3F818B1384603F0DD
:10322000E5F93BE0204603F0E1F93C4608E0394689
:10323000204603F0E3FA18B12AA0FFF7E9F82DE0E1
:1032400031462046676802F0EFFE38BB6568D9F862
:1032500000004FF6F771E860D8F8100028614FF0D1
:10326000000887F800807888884201D9093000E09A
:1032700008307880FF202872A5F80A803146284659
:1032800000F0A8F868810121CDE90081FF23002228
:10329000CDF808A04946204600F0F4FA2046BDE8E3
:1032A000FE4F03F0A3B90000280B002069636D7086
:1032B0005F696E7075743A206D6F76696E67207203
:1032C0002D3E7061796C6F616420746F2069636D4D
:1032D0007020686561646572206661696C65640A66
:1032E0000000000069636D705F696E7075743A204C
:1032F000726573746F72696E67206F726967696E49
:10330000616C20702D3E7061796C6F616420666124
:10331000696C65640A0000002DE9FF479146884604
:1033200006464FF420722421222002F0B1FE05004F
:1033300033D06889242802D219A0FFF769F86C6895
:1033400077681C2284F8008084F801904FF0000810
:10335000A4F80480A4F80680686871680830FCF757
:103360008BFFF868039003A800F054FC060011D00E
:10337000A4F8028047466989204600F02BF8608057
:1033800001200097CDE90106FF2303AA002128466A
:1033900000F078FA284603F029F9BDE8FF8700001D
:1033A000636865636B207468617420666972737406
:1033B00020706275662063616E20686F6C6420699E
:1033C000636D70206D657373616765000A460B213C
:1033D000FFF7A2BF00B501F09FFCC04380B200BD63
:1033E00070B500260546344612E06989686801F028
:1033F00093FC2044010C11FA80F4A87AC00706D08F
:103400008EB10026E0B2C4F3072141EA00242D6802
:10341000002DEAD126B1E0B2C4F3072141EA00242D
:10342000E04380B270BD0126ECE730B41B68029D1A
:103430009CB204EB13442B6814FA83F404EB13439B
:103440001C0C14FA83F31C0C14FA83F330BCAFF396
:1034500000802DE9F0411C4690460F4605460026A7
:1034600012E06989686801F057FC2044010C11FAE8
:1034700080F4A87AC00706D006B30026E0B2C4F3F1
:10348000072141EA00242D68002DEAD126B1E0B2DF
:10349000C4F3072141EA0024384600F053FF0444F6
:1034A000404600F04FFF2044010C11FA80F0010C5F
:1034B00011FA80F0C04380B2BDE8F0810126DDE75B
:1034C000421C12D088B191F8292092070BD54A6886
:1034D000824208D0896800EA01030A40934202D17F
:1034E0000143491C01D000207047012070470000B3
:1034F0002DE9F74F88B00446099800271426008C60
:10350000BD1F1438C11700EB5170C0F3CF000390FA
:1035100060680690017801F00F01052903D0284664
:103520000BB0BDE8F08F6189142903D259A0FEF7D2
:103530006FFFF4E7C08800F005FFC0F30C0100F452
:10354000005002910790208914381FFA80F99AE000
:1035500003984FF6FF7101EAC0004946484500D97B
:10356000084605904FF4207214210E2002F090FDC1
:103570005FEA000B51D0BBF80A00142802D24CA01D
:10358000FEF746FF1422DBF804000699FCF774FEF0
:10359000DBF804000490059D31E06089811B8FB247
:1035A000B04202D24AA0FEF733FFBD4200D22F46FE
:1035B0001FB3042001F0D4FE5FEA00082AD060683F
:1035C00043463044CDE9000741223946002002F04D
:1035D00063FE5FEA000A23D0204603F0F1F8404979
:1035E000C8E904145146584602F072FEE81B05046F
:1035F0002D0C06D000262468CFE724680026002D75
:10360000CBD1F01986B20998008C143848450BDBF1
:1036100001210AE0584602F0E9FF4FF0FF307FE752
:10362000404600F02DFBF5E700210298C0F30C00A6
:1036300009B1079909B140F4005000F083FE0499E4
:10364000C8800598143080B200F07CFE0499488050
:1036500004980021418114210498FFF7BBFE0499CE
:103660004881099859460A9A43699847584602F092
:10367000BDFF0599A9EB01001FFA80F9DDE9020100
:10368000084480B20290B9F1000F7FF461AF0020CE
:1036900046E700006970345F6672616728293A2046
:1036A0007062756620746F6F2073686F72740000AB
:1036B00074686973206E656564732061207062753B
:1036C0006620696E206F6E652070696563652100F4
:1036D000702D3E6C656E203E3D20706F666600006A
:1036E000694002082DE9F047456807460E462878EC
:1036F0000421B1EB101F03D0384602F077FF7CE0C5
:1037000000074FEA9068688800F01CFE044638897C
:10371000A04203D92146384602F0F4FF7989414599
:10372000EAD33889A042E7D34046B8F1140FE3D377
:1037300001462846FFF74EFE0028DDD1DFF8109144
:103740002869C9F81400EA68C0F30310C9F810200A
:103750000E2805D0304600F07FF850B1344619E00D
:1037600096F82900C00702D070680028F6D100241E
:1037700010E099F8140000247F280BD03548046825
:1037800006E0B44203D0204600F066F810B9246881
:10379000002CF6D13146D9F81000FFF791FE002831
:1037A000AAD199F81000C0F303100E28A4D0002C61
:1037B000A2D0E88830F0C00005D0384600F012F9F9
:1037C00007001AD07D68C9F80850C9E90046297871
:1037D00038460907890EA9F80C10414603F00EF887
:1037E000687A012811D006280AD04D462146D9F81A
:1037F0001400FFF765FE68B119E00020BDE8F0870E
:103800003146384604F0A4FC14E031463846FFF750
:10381000B1FC0FE0287DC0F303100E2807D041460D
:10382000384602F057FF02213846FFF79EFC384623
:1038300002F0DCFE0021C9F80010C9F80410C9F834
:103840000810A9F80C10C9F81010C9F81410D4E722
:10385000280B00207800002010B590F82910C90727
:103860000CD0416851B1064A52698A4204D00146DF
:103870001046FFF725FE08B1012010BD002010BD45
:10388000280B0020FEB5DDE90954089E1AB109B1E4
:103890000F6807B9211D0096CDE9015400F002F828
:1038A000FEBD00002DE9F84F0546DDE90A87807B63
:1038B000DDF830909A4616468B46012802D038A093
:1038C000FEF7A6FD6FF00104002E4CD0142128460F
:1038D00002F0AAFB002849D168896C68142802D23A
:1038E00032A0FEF795FD84F808A0390247EA0A20C5
:1038F000677241EA10213068206111FA80F101EB12
:103900001040452121704FEA082248F48A4142EADA
:10391000112184F801800F18288900F013FD00EBB5
:10392000070860802D4F0020E080388800F00AFDF5
:10393000A08000EB08013888401C3880BBF1000FE4
:103940000ED0DBF80000E06011FA80F101EB1040CE
:10395000010C11FA80F000EB1040C04360810CE0D4
:103960001F480068EFE76889142802D22046BDE8A6
:10397000F88F68686E4600690090B9F8200040B181
:103980002989814205D9324649462846FFF7B0FDCC
:10399000EDE7D9F814304846324629469847E6E71D
:1039A000702D3E726566203D3D2031006368656381
:1039B0006B2074686174206669727374207062751C
:1039C000662063616E20686F6C6420737472756327
:1039D000742069705F68647200000000D2000020EB
:1039E0001CC502082DE9F05F44688346207800F08A
:1039F0000F0005287ED1E08800F0A4FCC004070C6D
:103A0000608800F09FFC21780907890E814271D8F7
:103A1000401A1FFA80F8584602F0BAFC6D4D06466F
:103A2000288830440A2809D93146204600F0C4FAD3
:103A300000285FD0288830440A28E8D8A9466D6855
:103A40004FF0000A0CE06869E168884207D1A86974
:103A50002169884203D1A889A188884203D02D68B2
:103A6000002DF0D106E02DB1E08800F06BFCC00421
:103A700025D02FE0032001F073FC05000AD1314668
:103A8000204600F099FAB04217DB032001F068FCF1
:103A9000050012D02021FCF716FC0F20E877D9F89A
:103AA000041029601422214605F10800C9F80450C9
:103AB000FCF7E2FB002D1DD00CE05546FAE7E88943
:103AC00000F040FCC00405D01422214605F1080096
:103AD000FCF7D2FBA07940F34014641C08D007EB3C
:103AE000080080B2B84264D34FF6EB71884260D8C8
:103AF000224600E06AE05946284600F0D3F8411C0F
:103B000057D0B9F800203244A9F8002034B107EBAF
:103B10000801A983A97F41F00101A977012846D1B5
:103B2000A88B1422143087B2686805F10801466832
:103B300030463468FCF7A0FB384600F003FC708088
:103B4000A6F806A0A6F80AA014213046FFF742FC0A
:103B500070816E6809E014212046676802F04EFE0D
:103B60002146304602F0B4FB3C68002CF3D1D9F872
:103B700004104C468D4205D1002105E00868A8429A
:103B800002D001460029F9D1284600F065F93046F7
:103B900002F0FEFB05462088A84202D20EA0FEF7E6
:103BA00037FC2088401B20803046BDE8F09F002075
:103BB000FBE7686850B9D9F80400854202D00DA02F
:103BC000FEF726FC0021284600F046F9584602F090
:103BD0000DFDECE7D400002069705F7265617373BE
:103BE0005F70627566636F756E74203E3D20636C16
:103BF000656E00006E6F74206669727374616C7418
:103C0000686F756768206A75737420656E71756575
:103C10007565640070B50546144813E090F82910E6
:103C2000CA070FD04A070DD543685BB184682A687C
:103C3000234002EA04069E4216D0890702D4C168D6
:103C40008A4211D000680028E8D10948006850B1C4
:103C500090F82910CA0706D0490704D5416811B168
:103C600029787F2900D1002070BD00007800002055
:103C70007C00002038B5049C0094FFF7D6FB38BDCB
:103C800010B5040002D104A0FEF7C2FB2146BDE836
:103C90001040042001F022BB7020213D204E554CE5
:103CA0004C0000002DE9F05F4C68064693468846BC
:103CB00000250127608800F045FB21784FF0FF3A8E
:103CC0000907890E814233D8A0EB0109E08800F092
:103CD00039FBC004D8F80440020C0020206002EB3D
:103CE00009001FFA80FCA280A4F806C094451FD3E7
:103CF000716827E0486883889A4215D2216065B1CF
:103D0000EB889A4214D38088844511D8C5F8008086
:103D1000A088834206D0002704E08088844507D825
:103D2000C6F8048081B126E002D0C1888A4202D25E
:103D30005046BDE8F09F1DB1E988994200D00027A8
:103D4000016805460029D5D175B1E888A188884267
:103D500002D91EA0FEF75CFBC5F80080E888A188A8
:103D6000884208D0002706E0706810B11FA0FEF757
:103D70004FFBC6F80480BBF1000F02D1B07FC00733
:103D8000D7D007B37268F2B150688088D8B920687C
:103D9000214628B14468C888A1888842F7D012E03B
:103DA0008FB112B91FA0FEF733FB70684068A042C4
:103DB00002D11CA0FEF72CFB206810B11DA0FEF75D
:103DC00027FB0120B5E70020B3E7000063686563C7
:103DD0006B20667261676D656E747320646F6E2709
:103DE00074206F7665726C61700000006E6F2070D9
:103DF000726576696F757320667261676D656E7442
:103E00002C2074686973206D75737420626520744A
:103E1000686520666972737420667261676D656E8D
:103E20007421000073616E69747920636865636B47
:103E30000000000076616C69646174655F646174A0
:103E4000616772616D3A6E6578745F706275662144
:103E50003D4E554C4C00000070B5044609480D46D7
:103E60004168A14202D12168416005E015B906A070
:103E7000FEF7CEFA206828602146BDE87040032096
:103E800001F02CBAD400002073616E69747920634C
:103E90006865636B206C696E6B6564206C69737414
:103EA000000000002DE9F047064600250F46B1420C
:103EB00002D127A0FEF7ACFA2FB13868B04202D089
:103EC00026A0FEF7A5FA74684FF4803860688188F0
:103ED000B9B900687060142206F108016068FCF747
:103EE000CBF901212046FFF771FA204602F050FA83
:103EF0000546404502D31EA0FEF78AFA204602F08E
:103F000075FBC14674680FE06068A04604684046CF
:103F100002F03EFA05444D4502D315A0FEF778FAAB
:103F2000ADB2404602F062FB002CEDD1394630467E
:103F3000FFF792FF164C2088A84202D215A0FEF788
:103F400067FA2088401B20802846BDE8F0870000E3
:103F50007072657620213D206970720070726576FE
:103F60002D3E6E657874203D3D2069707200000022
:103F700070627566735F6672656564202B20636C82
:103F8000656E203C3D203078666666660000000065
:103F9000D400002069705F72656173735F70627531
:103FA00066636F756E74203E3D2070627566735F48
:103FB00066726565640000002DE9F047DFF87890CF
:103FC0000F46054600260022114613461446D9F82E
:103FD000040022E0D0F814C0D5F80C80C4450BD101
:103FE000D0F818C0D5F81080C44505D1B0F80CC081
:103FF000B5F80480C44509D0641C2AB190F81FC0EC
:1040000092F81F80C44501D802460B46D0F800C084
:10401000BCF1000F00D0014660460028DAD122B181
:1040200019461046FFF73EFF0644BE4201DA012C56
:10403000C9DC3046BDE8F087D400002070B50948DF
:10404000002544680BE0E07F20B1401EE077254664
:10405000246804E0204624682946FFF723FF002C4B
:10406000F1D170BDD400002010B5040002D106A02B
:10407000FEF7CEF9606908B102F0B8FA2046BDE853
:104080001040FFF7FDBD000070637220213D204EFF
:10409000554C4C007CB50446062084F828000220CC
:1040A00084F82200002584F8235084F8245084F8F2
:1040B000255084F8265084F8275040F2DC502084A4
:1040C0001F4E0E2084F829003460706888B90322DE
:1040D0000021012007F0DAFD706020B100231A46AC
:1040E000194607F0BBFE00231A461946706807F010
:1040F000E9FD04F122010020FCF704FD052211492D
:104100001148FCF75BFA052210491148FCF712FA36
:104110000F4E002406EB44100121FCF737FA641C13
:10412000052CF7D30920CDE9000500234FF4806268
:1041300008A10A4807F094FFBDE87C40FCF702BEE6
:10414000DC00002018A60120B4870120548801203B
:10415000148701204574685F6966000025310208F4
:104160002DE9F04F85B000200446019002A8FCF72D
:104170000DFB02AB93E807008946009260B381B261
:104180004FF4C172002001F083FF019020B3009F23
:10419000054640F2F45BB5F80A8000260DE0A4F273
:1041A000F4525242FCF768F8FF68D7F80890361BC3
:1041B000AAF2F458002406F2F456686808EB040AE0
:1041C000DA4509EB04013044E9D84246FCF754F8DB
:1041D0002D684444002DDED100210D4B4FF00042EC
:1041E000009802E00260C068491C1C68A4688C4208
:1041F000F8D818680021816006484269120602D585
:10420000802242618160019805B0BDE8F08F000016
:1042100094010020009002402DE9F05F364D4FF0F0
:1042200000090E46A8684C4658B903220021012017
:1042300007F02CFDA86020B100231A46194607F0AC
:104240000DFE2D480023FA221946806807F03AFD3A
:10425000E8B32A480568D5F808A034E028680028A3
:104260000CDBB6F80A80002719E0A4F2F45252429F
:10427000FCF702F8ED682868002802DA6FF00706FC
:1042800028E0D5F808A0A9EB04003F1B00F2F45089
:10429000ABF2F4581FFA80F9002407F2F45708EB48
:1042A000040B40F2F45170688B4500EB07010AEBF8
:1042B0000400DAD84246FBF7DFFF09EB0800366856
:1042C00044441FFA80F9002EC8D1484600E010E0AF
:1042D000FCF7ACFC0A484169890603D520214161FD
:1042E00000214160044800231A461946806807F0FF
:1042F000B5FD3046BDE8F09FDC0000208C010020B9
:104300000090024010B504464068804703F0E6F88C
:10431000094A216852688B181A1AB2F1004F03D368
:1043200008442246054902E0044922461846BDE8F1
:10433000104003F053B90000C400002005430208F8
:1043400000BA704740BA704710B503F06DF800F03E
:10435000EBFD00F0E1FF01F0BDFD03F0F7FEBDE86D
:10436000104003F087B910B5016804466FF00500EE
:104370004B684BB1097801F0F001102904D1A289F2
:104380001846A16803F0FCFA207110BD70B50168F1
:1043900004466FF00A034A684878002A41D00A7838
:1043A0000125B5EB121F3CD1227A032A01D0022845
:1043B00037D0032835D0012830D0D00702D00846A6
:1043C00001F021F92068C06910B117A0FEF720F8AC
:1043D00021680420487020680021C461206800F032
:1043E00037F800281CD020684078042802D015A097
:1043F000FEF70EF8154803F06AF8206800210C302B
:1044000002F0D3FF114803F050F8206840780028EC
:1044100006D0BDE870400BA0FDF7FABFFB2020716D
:1044200070BD237170BD0000616C7265616479209C
:1044300077726974696E67206F7220636C6F73693D
:104440006E67000073746174652100003000002005
:104450002DE9F0478A46040002D15EA0FDF7D8FF9F
:1044600020780121B1EB101F02D05EA0FDF7D0FF34
:104470006078042802D063A0FDF7CAFF606810B915
:1044800069A0FDF7C5FFE06910B96CA0FDF7C0FF9A
:10449000E0696768007A00F0010900F0020803286B
:1044A0000FD0B9F1000F06D0387D052809D00628B5
:1044B00007D0082805D0B8F1000F08D0B87EC00694
:1044C00005D501250021384603F056FA00E0002505
:1044D000387D01281FD0B9F1000F07D000213846E0
:1044E00005F04CFD0021384603F08BF9B8F1000FC0
:1044F00003D00021384605F0D9FF95B100221146BE
:10450000384605F021F80021384603F031FD3846E1
:1045100003F0A4FA0AE00021384603F072F9002DF6
:10452000F5D142464946384605F0E0FF06000DD079
:10453000701C0BD1E069407A18B1387D012830D069
:1045400032E01DB1384603F059F90026E0690768EA
:1045500006710020E06160700C37CEB935B1606043
:10456000236A1BB10022042120469847B9F1000FAD
:1045700005D0236A1BB10022114620469847B8F1A6
:10458000000F05D0236A1BB1002202212046984764
:10459000BAF1000F02D0384602F0CEFF0020BDE88D
:1045A000F0872DA0FDF734FFB8F1000F03D0334999
:1045B000384605F07BFF01223149384604F0C4FF3C
:1045C0003049384603F0D4FC2146384603F0D4F98C
:1045D0003046E4E7696E76616C696420636F6E6EE5
:1045E000000000007468697320697320666F722090
:1045F000746370206E6574636F6E6E73206F6E6C83
:1046000079000000636F6E6E206D757374206265B3
:1046100020696E207374617465204E4554434F4E7B
:104620004E5F434C4F53450070636220616C72656E
:1046300061647920636C6F7365640000636F6E6EF4
:104640002D3E63757272656E745F6D736720213DD8
:10465000204E554C4C000000436C6F73696E672010
:1046600061206C697374656E20706362206D61797E
:10467000206E6F74206661696C2100008D720208E3
:104680008D6902081526020870B504460068457851
:1046900095B100780121B1EB101F02D02DA0FDF7DC
:1046A000B7FE022D08D0032D03D12068007E4007FD
:1046B00002D4FB20207119E000252571206800F04C
:1046C000A2FF2068416829B1017801F0F0011029AA
:1046D00012D045602068036A43B100221146984712
:1046E0002068036A13B10022022198472068BDE8C0
:1046F00070400C3002F026BFC06910B11AA0FDF75F
:1047000087FE216804204870032020722068002161
:10471000C4612068FFF79CFE00281AD0206840780A
:10472000042802D017A0FDF773FE184802F0CFFE50
:10473000206800210C3002F038FE144802F0B5FE6B
:1047400020684078002804D0BDE870400DA0FDF737
:104750005FBE70BD6E6574636F6E6E20737461743E
:1047600065206572726F7200616C72656164792098
:1047700077726974696E67206F7220636C6F7369FA
:104780006E670000737461746521000030000020C2
:10479000F8B5016804466FF00A02486848B10B7822
:1047A0000125B5EB131F4CD14978002621B1022910
:1047B00041D08DF8002040E0017D19B1FA208DF83C
:1047C00000003AE0FF216A4604F012F9050034D0F7
:1047D0002068103002F064FE38B12068103002F01A
:1047E00035FE2068103002F04AFE8DF80060206827
:1047F000143002F055FE30B920680A21143002F05E
:104800002FFE8DF800009DF8000028B1284603F027
:1048100025F92068466010E0216802204870206871
:1048200045602846216803F0A7F8206806494068DB
:1048300002F0E7FF01E08DF800609DF800002071B4
:10484000F8BDF020BBE700006124020810B5044663
:104850000020207120684168002916D1007800F0FE
:10486000F000102801D0FA200EE0084604F0A0F96C
:1048700021684860216830B1084602F03FFD206899
:104880004068002801D1FF20207110BD2DE9F041C2
:1048900005460020287128684168002916D0007854
:1048A0000121B1EB101F11D1AC684FF480384FF6E5
:1048B000FF76444501D3304600E0204687B22868A1
:1048C0003946406805F0A4FBE41BF2D1BDE8F08155
:1048D00010B50446006800F0E4FE00283DD12168D0
:1048E00001220B78B2EB131F37D1487808B1901F23
:1048F00033E0486800282ED04A702068C06910B1A3
:1049000017A0FDF785FD606910B91CA0FDF780FDBB
:1049100020680021C461206800F040F800281DD004
:1049200020684078012802D019A0FDF771FD1A48CF
:1049300002F0CDFD206800210C3002F036FD164853
:1049400002F0B3FD20684078012807D1BDE810408F
:104950000FA0FDF75DBD6FF00A00207110BD0000D3
:10496000616C72656164792077726974696E672021
:104970006F7220636C6F73696E6700006D73672DD3
:104980003E6D73672E772E6C656E20213D203000C2
:104990007374617465210000300000202DE9F34F2D
:1049A00081B004004FF0000A02D17AA0FDF730FD7B
:1049B0006078012802D07BA0FDF72AFDE06910B9DC
:1049C00080A0FDF725FD606810B985A0FDF720FDEA
:1049D000E06981694069814202D387A0FDF718FD33
:1049E000E069808910B994A0FDF712FDE069077FA6
:1049F000207E800701D4780701D5012000E0002047
:104A000080464FF6FF7BE0694FF48039816800698A
:104A10000A68024400924A68161A4E4503D35D465E
:104A200047F0020700E0B5B26168B1F86410A9422E
:104A30000ED20D46B8F1000F08D04DB9E06980697B
:104A400008B100264AE06FF0060647E047F002078B
:104A50002844904202D982A0FDF7DAFC5D4501D1DD
:104A60004E4506D2B0B2A84208D1E069808901283B
:104A700004D94FF0010947F0020701E04FF00009A7
:104A80003B462A466068009906F080F9060019D175
:104A9000E069816929448161E06901692944016112
:104AA000E0698268526891420CD18189491E0904EB
:104AB000090C8181E06905D0816808318160E16974
:104AC00000200861B9F1000F02D0002E9BD000E059
:104AD0000EB1701C4BD1B8F1000F0FD0E0698169A5
:104AE000406981420AD2236A1BB100220321204679
:104AF0009847207E40F01000207610E0606841F674
:104B00005E72B0F86410914203D9B0F866002C28A8
:104B100005D3236A1BB1002203212046984716B112
:104B2000701C11D023E0E06981694069814202D0A4
:104B3000B8F1000F01D04FF0010A606804F086F868
:104B4000011D11D1064612E0606804F07FF8011DD6
:104B5000F8D0B8F1000F07D0E069806908B10026ED
:104B600005E06FF0060602E0BAF1000F0ED0E06932
:104B7000016806710020E061607002980C3110B18C
:104B8000084602F0D9FC0020BDE8FE8F4FF0FF3050
:104B9000FAE70000636F6E6E20213D204E554C4CAD
:104BA00000000000636F6E6E2D3E737461746520AB
:104BB0003D3D204E4554434F4E4E5F57524954455C
:104BC00000000000636F6E6E2D3E63757272656E3D
:104BD000745F6D736720213D204E554C4C000000E2
:104BE000636F6E6E2D3E7063622E74637020213D84
:104BF000204E554C4C000000636F6E6E2D3E637569
:104C00007272656E745F6D73672D3E6D73672E777C
:104C10002E6F6666736574203C20636F6E6E2D3E4A
:104C200063757272656E745F6D73672D3E6D736729
:104C30002E772E6C656E0000636F6E6E2D3E637571
:104C40007272656E745F6D73672D3E6D73672E773C
:104C50002E766563746F725F636E74203E20300041
:104C60006C7769705F6E6574636F6E6E5F646F5FA3
:104C700077726974656D6F72653A20696E76616CE2
:104C80006964206C656E67746821000010B510F1CE
:104C90000F0F10D010F10E0F0AD010F10D0F05D02C
:104CA00010B106A0FDF7B4FB002010BD074810BDF1
:104CB0000648401C10BD0548801C10BD756E68611B
:104CC0006E646C6564206572726F7200ECC30208DA
:104CD00070B50C00054602D10BA0FDF799FB0D48FD
:104CE000854201D1F3200AE00A48401C854201D1E7
:104CF000F22004E00748801C854203D1F120207097
:104D0000012070BD002070BD65727220213D204ED3
:104D1000554C4C00ECC3020818B50022ADF8002039
:104D200010F001030BD0002909DD10F8014B8DF8BC
:104D30000140491E03E030F8024B891E224401293C
:104D4000F9DC002902DD00788DF80000BDF80000D4
:104D50001044010C11FA80F0010C11FA80F023B11B
:104D6000C1B2C0F3072040EA012080B218BD0000A4
:104D70001CB5FDF7F7F84FF400318802FCF7AEFCE4
:104D800062B6FCF784FE0B4901200860FDF7DAF8F3
:104D900009491020CDE900010023802207A10B481A
:104DA00007F05EF9012802D04FF0FF301CBD06F07D
:104DB000D9FEFEE7001000E00000002041707054B2
:104DC00061736B4372656174650000002D04020815
:104DD0002DE9F041002854D0810701D02AA00AE033
:104DE000324FA0F1080439688C4203D379680C3043
:104DF000884203D92EA0FDF70BFB2CE02B4808308E
:104E000002F053FB207960B3204600F0A9F9054673
:104E1000208802F045F90646608802F041F9014613
:104E200020884FF42053002298420DD86088984281
:104E30000AD8A84202D00888A84205D178688642DC
:104E400011D07088A8420ED020A0FDF7E1FA1748D3
:104E5000083002F03CFB02F0A3FABDE8F04102F09A
:104E6000C1BA27A0F1E72271F868844200D2FC6041
:104E7000204601F0F7FCBDE8F0410C48083002F094
:104E800026BBBDE8F08100006D656D5F66726565EB
:104E90003A2073616E69747920636865636B206181
:104EA0006C69676E6D656E74000000003400002050
:104EB0006D656D5F667265653A20696C6C656761EA
:104EC0006C206D656D6F7279000000006D656D5F1F
:104ED000667265653A20696C6C6567616C206D650A
:104EE0006D6F72793A206E6F6E2D6C696E6B6564B2
:104EF0003A20646F75626C6520667265650000001B
:104F00006D656D5F667265653A20696C6C65676199
:104F10006C206D656D6F72793A20646F75626C6597
:104F2000206672656500000070B51048104C20F0D6
:104F300003004FF42055206005800021418001715D
:104F4000284602F0ADF801216060017105804580BE
:104F50002068E06004F1080002F0ADFA002804D0F7
:104F6000BDE8704003A0FDF753BA70BD430B0020AD
:104F7000340000206661696C656420746F20637280
:104F800065617465206D656D5F6D75746578000091
:104F90002DE9F04700280ED0C51C4FF6FC710D40DE
:104FA0004FF4205A0C2D01D20C2501E0554501D8B3
:104FB000854202D20020BDE8F0873B4802F075FA36
:104FC000DFF8E480A8F10808D8F80C0000F0C8F871
:104FD0000646C5F5205761E0304602F061F8044608
:104FE0000079002856D12088801B0838A84251D368
:104FF000208805F11401801B08384FF00109884210
:1050000019D37019083087B2574502D127A0FDF790
:10501000FFF9384602F044F800210171218801802F
:105020004680278084F804900088504505D002F01F
:1050300037F8478001E084F80490D8F80C00464621
:10504000844203D010E0008802F02AF8017911B1FF
:1050500071688842F7D1F0607168884204D00079A5
:1050600010B117A0FDF7D4F90F4802F030FA60191B
:1050700071680830884202D918A0FDF7C9F9A00765
:1050800005D022A0FDF7C4F92CA0FDF7C1F904F169
:10509000080090E7304602F003F80688B7429BD834
:1050A000014802F014FA85E73C000020696E766141
:1050B0006C6964206E657874207074720000000062
:1050C0006D656D5F6D616C6C6F633A20216C66720B
:1050D00065652D3E75736564000000006D656D5F4C
:1050E0006D616C6C6F633A20616C6C6F63617465A9
:1050F00064206D656D6F7279206E6F742061626FD0
:1051000076652072616D5F656E642E006D656D5F02
:105110006D616C6C6F633A20616C6C6F6361746578
:1051200064206D656D6F72792070726F7065726C3E
:105130007920616C69676E65642E00006D656D5F36
:105140006D616C6C6F633A2073616E697479206372
:105150006865636B20616C69676E6D656E740000D5
:1051600002490988401A80B27047000034000020CC
:105170002DE9F05F0746CC1C4FF6FC7004404FF45D
:10518000205B0C2C01D20C2401E05C4529D88C4218
:1051900027D33E4D2868874202D36868874202D3EE
:1051A0003BA0FDF735F92868874203D36868AA4613
:1051B000874204D302F0F4F802F014F916E0A7F1E4
:1051C00008052846FFF7CCFF06462888801B0838CC
:1051D0001FFA80F94C4502D933A0FDF719F94C4567
:1051E00003D94FF00000BDE8F09F01D13846FAE73F
:1051F000264800F1080002F058F9288801F050FF15
:105200008046007930B304F1140048451DD83019A8
:10521000083084B22888584502D12BA0FDF7F8F851
:10522000204601F03DFFDAF80C20904201D2CAF886
:105230000C00002101712988018046802C800088A3
:10524000584502D001F02CFF44801048083002F08D
:105250003EF9CBE72888584502D11BA0FDF7D8F8C6
:1052600030190830DAF80C10B8F8009084B24145D3
:1052700004D1204601F014FFCAF80C00204601F0CA
:105280000FFF00210171A0F80090D6E73400002044
:105290006D656D5F7472696D3A206C6567616C2035
:1052A0006D656D6F727900006D656D5F7472696D0B
:1052B0002063616E206F6E6C7920736872696E6B0B
:1052C000206D656D6F727900696E76616C6964201E
:1052D0006E65787420707472000000000C2802D390
:1052E00005A0FDF795B8002904D00A4A52F820001D
:1052F000FDF740B9704700006D656D705F667265BF
:10530000653A2074797065203C204D454D505F4DC5
:105310004158000080C4020830B5054D002455F8FE
:10532000240000F007F8641CA4B20C2CF7D330BDA5
:1053300080C402088268002111604168C91C21F004
:105340000301002207E08368521C1B680B6083681E
:1053500019600388194443889342F4DC70470000C5
:1053600010B50C2804D306A0FDF752F8002010BD9C
:105370000B4951F82000BDE81040FDF71FB90000AF
:105380006D656D705F6D616C6C6F633A20747970E0
:1053900065203C204D454D505F4D415800000000B8
:1053A00080C4020810B504000CD0206820B101F0C0
:1053B0001DF90020606020602146BDE810400520F6
:1053C000FFF78CBF10BD00002DE9FC410D00044625
:1053D0006FF00F0614D0002028609CB1204600F02A
:1053E00060F98DF80400002819D104F11400074673
:1053F00002F056F8761C60B3207EC10729D105E083
:1054000015A000E01CA0FDF703F822E0800708D5F6
:105410006946384601F0B5FF401C07D1C01FBDE802
:10542000FC8100226946384601F08AFF236A1BB1DD
:10543000002201212046984701A90098FFF748FC67
:1054400010B19DF90400EAE7009810B1286000202F
:10545000E5E73046E3E700006E6574636F6E6E5FEC
:105460006163636570743A20696E76616C6964206B
:10547000706F696E746572006E6574636F6E6E5FD7
:105480006163636570743A20696E76616C6964204B
:10549000636F6E6E000000002DE9F04106460F4676
:1054A0000620FFF75DFF041E20D000252572267020
:1054B00006F0F0006560102803D012A0FCF7A8FFEA
:1054C0000FE004F110000A21064601F0C9FF40B9BF
:1054D000002104F10C0002F011F848B1304601F04F
:1054E000B5FF21460620FFF7F9FE0020BDE8F08158
:1054F00004F1140001F0C3FF6570C4E90757257675
:105500002046F3E76E6574636F6E6E5F616C6C6F5F
:10551000633A20756E646566696E6564206E6574B5
:10552000636F6E6E5F7479706500000010B50A6875
:105530000C460C3206F08EF8002801D194F90400D4
:1055400010BD000000B589B008B139B107E008A06E
:10555000FCF75EFF6FF00F0009B000BD0B49029130
:105560000090ADF80C2069460948FFF7DFFFF3E72C
:105570006E6574636F6E6E5F62696E643A20696E09
:1055800076616C696420636F6E6E00001CC5020852
:1055900067430208032100F001B8000000B589B09C
:1055A00058B100908DF8081029208DF8090069463F
:1055B0000548FFF7BBFF09B000BD04A0FCF728FFBA
:1055C0006FF00F00F7E700008D4302086E6574630B
:1055D0006F6E6E5F636C6F73653A20696E76616C97
:1055E000696420636F6E6E0070B5050004D000F032
:1055F00083F9040002D004E0002070BD284600F0CA
:105600005FF8204670BD7CB504461030064601F0B8
:1056100047FFF0B101256946304601F0B2FE401C5B
:1056200011D02078B5EB101F09D101A90098FFF720
:105630004FFB0028EFD1009800F0D8FFEBE700986F
:10564000FFF7B0FEE7E7304601F000FF304601F01B
:1056500016FF04F11400064601F022FF00281FD0B7
:1056600000256946304601F08CFE401C12D001A98D
:105670000098FFF72DFB0028F3D1009C2046FFF790
:10568000C2FF606810B102F0B9F86560204600F012
:1056900017F8E6E7304601F0D9FE304601F0EFFE9C
:1056A0007CBD70B5040009D001F07AFE94F9085071
:1056B0000021217201F096FE284670BD002070BDC9
:1056C00070B50446406810B110A0FCF7A1FE04F1CB
:1056D000100001F0E5FE10B118A0FCF799FE04F1EE
:1056E000140001F0DDFE10B123A0FCF791FE04F1DF
:1056F0000C00054601F0FAFE284601F01AFF21468B
:10570000BDE870400620FFF7E9BD0000504342208D
:105710006D757374206265206465616C6C6F636184
:10572000746564206F757473696465207468697347
:105730002066756E6374696F6E0000007265637633
:105740006D626F78206D7573742062652064656189
:105750006C6C6F6361746564206265666F7265204E
:1057600063616C6C696E6720746869732066756E1E
:105770006374696F6E0000006163636570746D62CD
:105780006F78206D757374206265206465616C6C40
:105790006F6361746564206265666F726520636122
:1057A0006C6C696E6720746869732066756E6374CB
:1057B000696F6E0000B589B030B100906946054848
:1057C000FFF7B4FE09B000BD03A0FCF721FE6FF0A7
:1057D0000F00F7E7914702086E6574636F6E6E5FA6
:1057E0006C697374656E3A20696E76616C696420C9
:1057F000636F6E6E0000000070B50D4688B01146F4
:10580000FFF74AFE040034D08DF8085069461A4864
:105810000094FFF78BFE00282BD0606810B117A012
:10582000FCF7F6FD04F11000054601F039FE10B951
:105830001BA0FCF7EDFD04F1140001F031FE10B1E6
:105840001DA0FCF7E5FD04F10C00064601F07AFE10
:1058500010B922A0FCF7DCFD304601F047FE2846D7
:1058600001F0F4FD21460620FFF738FD002008B0C6
:1058700070BD2046FBE700004D4802086672656572
:10588000696E6720636F6E6E20776974686F7574D8
:105890002066726565696E672070636200000000B3
:1058A000636F6E6E20686173206E6F207265637621
:1058B0006D626F7800000000636F6E6E2D3E616355
:1058C000636570746D626F782073686F756C646E59
:1058D000277420657869737400000000636F6E6E32
:1058E00020686173206E6F206F705F636F6D706CE6
:1058F000657465640000000000B589B0002807D019
:10590000009029208DF8090069460248FFF70EFE35
:1059100009B000BD89460208F8B50D0006466FF0D3
:105920000F0415D000272F60A6B105200097FFF7C0
:1059300017FD040013D000226946304600F0BCF881
:1059400006000FD021460520FFF7C8FC3046F8BD01
:105950000BA000E012A0FCF75BFD2046F8BD4FF065
:10596000FF30F8BD009810B914A0FCF751FD009865
:10597000206000986060A781A76000202C60F8BDBF
:105980006E6574636F6E6E5F726563763A20696EE2
:1059900076616C696420706F696E746572000000D6
:1059A0006E6574636F6E6E5F726563763A20696EC2
:1059B00076616C696420636F6E6E00007020213D1B
:1059C000204E554C4C0000002DE9FC4104464FF0A0
:1059D000000017460D006FF00F06009010D02860F1
:1059E00084B104F11000804601F05AFD761D68B1C3
:1059F000207E810712D4790710D4C0070ED10BE0A6
:105A00001EA000E025A0FCF703FD15E02046FFF7EF
:105A100048FE002811D10FE0207A98B1694640462F
:105A200001F0AFFC401C12D12046FFF73AFE0028DF
:105A300003D1207EC00702D03046BDE8FC816FF064
:105A40000600FAE700226946404601F079FC01A908
:105A50000098FFF73DF930B19DF9040010F10F0FE8
:105A6000EBD10020E9E70098236A028913B10121F4
:105A70002046984700982860F3E700006E6574633D
:105A80006F6E6E5F726563763A20696E76616C69DF
:105A90006420706F696E7465720000006E657463D7
:105AA0006F6E6E5F726563763A20696E76616C69BF
:105AB0006420636F6E6E0000F0B5044689B017462F
:105AC0000D46103001F0ECFC30B1207E010607D508
:105AD00000F07F00207621E06FF00A0009B0F0BDF1
