:020000040800F2
:10000000000400209D010008A5010008A7010008C8
:10001000A9010008AB010008AD01000800000000C4
:10002000000000000000000000000000AF01000818
:10003000B101000800000000B3010008B50100088C
:10004000B7010008B7010008B7010008B7010008B0
:10005000B7010008B7010008B7010008B7010008A0
:10006000B7010008B7010008B7010008B701000890
:10007000B7010008B7010008B7010008B701000880
:10008000B7010008B7010008B7010008B701000870
:10009000B7010008B7010008B7010008B701000860
:1000A000B7010008B7010008B7010008B701000850
:1000B000B7010008B7010008B7010008B701000840
:1000C000B7010008B7010008B7010008B701000830
:1000D000B7010008B7010008B7010008B701000820
:1000E000B7010008B7010008B7010008B701000810
:1000F000B7010008B7010008B7010008B701000800
:10010000B7010008B7010008B7010008B7010008EF
:10011000B7010008B7010008B7010008B7010008DF
:10012000B7010008B7010008B7010008B7010008CF
:10013000B7010008B7010008B7010008B7010008BF
:10014000B7010008B7010008B7010008B7010008AF
:10015000B7010008B7010008B7010008B70100089F
:10016000B7010008B7010008B7010008B70100088F
:10017000B7010008B7010008B7010008B70100087F
:10018000B7010008B7010008DFF80CD000F026F82E
:100190000048004715070008000400200648804773
:1001A00006480047FEE7FEE7FEE7FEE7FEE7FEE75C
:1001B000FEE7FEE7FEE7FEE78D060008890100087E
:1001C00030B504460020034600E05B1C934203D296
:1001D000E05CCD5C401BF8D030BD0000064C074D04
:1001E00006E0E06840F0010394E807009847103407
:1001F000AC42F6D3FFF7CCFF7C0800088C0800085F
:1002000001460868401C08B9012070470020FCE73F
:1002100070B504460D461646324629462046FFF77D
:10022000CFFF08B9012070BD0020FCE710B500F039
:10023000C5F80221202000F023F80221282000F038
:100240001FF800F08BF810BD10B500F0B7F80221D0
:10025000402000F015F80221482000F011F800F0CD
:100260007DF810BD10B500F0A9F80221302000F093
:1002700007F80221382000F003F800F06FF810BDF5
:1002800070B504460A460026092502B909E0012A8C
:1002900001D1160205E0022A01D1160201E04FF455
:1002A000407600F09DF80546092D28D115480068D4
:1002B00020F4407013490860084600683043086025
:1002C0000846006820F0F80008600846006844F01E
:1002D000020108430B4908600846006840F480307A
:1002E000086000F07DF805460648006820F002002E
:1002F000044908600846006820F0F80008602846B5
:1003000070BD0000103C024009201349096801F447
:100310008031B1F5803F01D101201CE00E49096810
:1003200001F0100109B1062015E00B49096801F43C
:10033000807109B102200EE00749096801F0EF0160
:1003400009B1072007E00449096801F0020109B179
:10035000082000E0092070470C3C02400348006878
:1003600040F000400149086070470000103C024026
:1003700030B502460C46092500F032F80546092D35
:1003800017D10D48006820F440700B4908600846FA
:10039000006808600846006840F0010008601470BA
:1003A00000F01EF805460448006820F001000249EC
:1003B0000860284630BD0000103C02400548006837
:1003C00000F0004028B1044802490C390860034895
:1003D00008607047103C024023016745AB89EFCDB0
:1003E00008B509200090FFF78FFF009002E0FFF7AB
:1003F0008BFF00909DF800000128F8D09DF80000C8
:1004000008BDF0B50A4600210023002400BF3DE0EE
:10041000012505FA01F3156805EA03049C4234D16D
:1004200005684F000326BE40B543056015794E00B0
:10043000B5400668354305601579012D02D0157960
:10044000022D16D185684F000326BE40B543856056
:1004500055794E00B540866835438560456801266C
:100460008E40B5434560456896798E40B6B23543B7
:100470004560C5684F000326BE40B543C560D579C9
:100480004E00B540C6683543C560491C1029BFD32E
:10049000F0BD418370470183704710B504464FF4A7
:1004A0008031C80200F044F8206880F3088800BF5B
:1004B000002080F3148800BF6068804710BD0000F2
:1004C0001CB50121512000F051F8182000900120A6
:1004D0008DF8040000208DF8060003208DF805003B
:1004E00001208DF8070069460E48FFF78AFF1821A2
:1004F0000C48FFF7D0FF4FF40070009069460A489F
:10050000FFF77FFF4FF400710748FFF7C4FF022099
:10051000009069460548FFF774FF02210348FFF782
:10052000BAFF1CBD0010024000180240000002404B
:10053000024A0A400243024B1A60704780FFFF1FC5
:1005400008ED00E02DE9F04105460E461746FFF79D
:1005500035FF002404E0315D2819FFF709FF641C12
:10056000BC42F8D3FFF7FAFEBDE8F08129B1064A94
:1005700012680243044B1A6004E0034A1268824383
:10058000014B1A60704700003038024010B5FFF789
:1005900015FF02211820FFF773FEFFF7DFFE10BDE5
:1005A0000CB50020019000903448006840F4803081
:1005B0003249086000BF3148006800F40030009004
:1005C0000198401C0190009818B90198B0F5A04F0F
:1005D000F1D12A48006800F4003010B101200090E9
:1005E00001E0002000900098012846D123484030C7
:1005F000006840F080502149403108602048006880
:1006000040F440401E4908601C48083000681B49FF
:10061000083108600846006840F400400860084659
:10062000006840F4A05008601648091F0860081FC1
:10063000006840F08070091F086000BF0F48006824
:1006400000F000700028F9D040F205700E490860F3
:100650000A480830006820F00300084908310860A3
:100660000846006840F00200086000BF03480830F8
:10067000006800F00C000828F8D10CBD00380240DA
:100680000070004008544007003C024010B5154877
:10069000006840F47000134908601348006840F097
:1006A00001001149086000200F49083108600E4818
:1006B00000680E4908400C4908600D48091D086093
:1006C000081F006820F48020091F086000200649E8
:1006D0000C310860FFF764FF4FF00060014980397A
:1006E000086010BD88ED00E000380240FFFFF6FE14
:1006F0001030002402E008C8121F08C1002AFAD1F5
:1007000070477047002001E001C1121F002AFBD191
:1007100070470000FFF7D4FE08214448FFF7B9FEF8
:1007200010214248FFF7B5FE4FF400714048FFF733
:10073000B0FE02213F48FFF7ACFE4FF47A7000F0A4
:1007400085F83D48FFF75CFD002851D10821374866
:10075000FFF79FFE10213548FFF79DFE4FF4FA701A
:1007600000F074F808213148FFF795FE10212F485A
:10077000FFF78FFE4FF4FA7000F068F8FFF764FDA2
:100780002E4A2F492F48FFF7DDFEFFF74FFD2B4A7A
:100790002D492B48FFF7D6FE284A2B492848FFF75A
:1007A00037FDA8B9FFF7F2FEFFF740FD234A2549C0
:1007B0002348FFF7C7FE08211C48FFF76AFE1021F7
:1007C0001A48FFF766FE4FF47A7000F03FF80FE02A
:1007D000FFF7DCFEFFF746FD08211448FFF75BFE3C
:1007E00010211248FFF757FE4FF47A7000F02EF8F0
:1007F00072B61348FFF751FE17E008210B48FFF7C8
:100800004AFE10210948FFF746FE4FF47A7000F0C7
:100810001DF808210548FFF73CFE10210348FFF7AB
:1008200038FE4FF47A7000F011F8E6E7001002404D
:10083000001802400000024000C00008FFFF020054
:1008400000000108000008080000040830B5054653
:10085000002403E0284600F005F8641CB4F57A7F14
:10086000F8DB30BD002105E0002200E0521C182A10
:10087000FCDB491C8142F7DB704700008C08000854
:0C08800000000020000400000407000835
:040000050800018965
:00000001FF
